:020000040000FA
:060000000200E1021F14E2
:03003300020CCCF0
:03004B00021F94FD
:10008300021DD800000080FB1200F3B90003020038
:10009300DBE479127807B800028004F709D8FCE49E
:1000A300900F00783F790E8002F0A3D8FCD9FA9024
:1000B3001C3EAA82AB839000F9781B79018015E47A
:1000C30093A3AC82AD838A828B83F0A3AA82AB8392
:1000D3008C828D83D8E9D9E7121BE412008675D090
:1000E300007581BF75100075110F5392FE02008BCE
:1000F30079015392FE221301B601B601B601B6018E
:10010300BE010000000001000000AD130600000066
:1001130012010002020000205104A8160900010286
:1001230003010902430002010080190904000001D0
:100133000202010005240010010424020205240622
:100143000001052401000107058203400040090462
:100153000100020A000000070584024000010705B0
:1001630004024000010403090424035400650078D9
:100173000061007300200049006E00730074007278
:100183000075006D0065006E00740073001E03436C
:100193000043003200350033003100200055005386
:1001A30000420020004300440043000803300030B5
:1001B3000031002E01000051010000E96C7006EAD5
:1001C3006D7002EB6E22BB0102E722C0925392FED6
:1001D300C082C08389828A83BB0003E08002E493E8
:1001E300D083D082D09222BB0015C0925392FEC01E
:1001F30082C0838A838982F0D083D082D09222BB4B
:100203000101F722E026F008A3E036F008A3E03668
:10021300F008A3E036F022E0F608A3E0F608A3E036
:10022300F608A3E0F622E6F008A3E6F008A3E6F05A
:1002330008A3E6F022CAC0E0E6F0A308DAFAD0E0A9
:10024300FA22CAC0E0E0A30592F0A30592DAF6D041
:10025300E0CA22B90010BB0008E88AF084F8AAF0CB
:1002630022E4FBC8FA22EB70227B10C833C8C933DF
:10027300C9335007C39AC3DBF280069A50012ADBC5
:10028300EAC833F4C8C933F4C9FA2275F008E4C8DC
:1002930033C8C933C933C99AC99B5004C92AC93B56
:1002A300D5F0ECFBC833F4C8E4C9FA22600C08C6E5
:1002B300C313C618C613C6D5E0F422700422600D1A
:1002C30018C6C333C608C633C6D5E0F418222510B2
:1002D30010AF08F510400215118008F51040021503
:1002E30011D2AF22C0D0251010AF08F5105002056F
:1002F300118008F51050020511D2AFD0D02225107D
:10030300F58210AF08F510400215118008F5104072
:10031300021511D2AF851183222510F582E4351120
:10032300F583222510F584E43511F58522E4735312
:1003330092FE2510C582C0E0E51134FFC583C0E0FD
:10034300E510C3958224F9F8E4C5A8858311858255
:1003530010C5A8E8CEF0A3E520F0A37808E608F0DE
:10036300A3DEFAEFF0A3E58124FBF8E608F0A3E6A9
:1003730008F0A30808E608F0A3E608F0A315811522
:1003830081D0E0FED0E0F815811581E8C0E0EEC031
:10039300E0225392FE851183851082E0A3FEE0A341
:1003A300F5207808E0A3F608DFFAE0A3FFE0A3C096
:1003B300E0E0A3C0E0E0A3C0E0E0A3C0E0E4C5A8A0
:1003C300858210858311C5A8D083D0825392FE22E3
:1003D300C0925392FEC0D02510C582C0E0E511340F
:1003E300FFC583C0E0E510C3958224F210AF0885F2
:1003F30083118582108008858311858210D2AFC84E
:10040300F0A3E9F0A3EAF0A3EBF0A37908E709F07E
:10041300A3D8FAECF0A3EDF0A3EEF0A3EFF0A3D092
:10042300E0F0A3D0E0F0A3D0E0F0A3E520F0A3E553
:10043300F0F0A3D0E0F0225392FE85118385108261
:10044300E0C0E0A3E0F9A3E0FAA3E0FBA37808E0AF
:10045300F608A3DFFAE0FCA3E0FDA3E0FEA3E0FFC0
:10046300A3E0C0E0A3E0C0E0A3E0F5D0A3E0F52063
:10047300A3E0A3F5F0E0A3C0E0E4C5A8858311855C
:100483008210C5A8D0E0D082D083F592D0E0F8D016
:10049300E032E584F0A3E585F022E0A3F584E0F5FE
:1004A30085227403800474028000C0E0F404120304
:1004B30001D0E01202382274038000C0E0F4041279
:1004C3000301D0E012024522D083D082C5F0E49329
:1004D300A3C5F0C395F0F5F0E493A3C395F04005ED
:1004E300E5F0048001E475F002A42582F582E5F0CD
:1004F3003583F583E493A3C0E0E493C0E022D08383
:10050300D082CCC0E0E493A3600612052B1470FAEA
:10051300E493A3600612054A1470FAD0E0FCE49356
:10052300A3C0E0E493C0E022C0E0E493A3D39C50D3
:1005330010E493A3C39C400AD0E0D0E0D0E00205CE
:100543001EA3A3A3D0E022C0E0E493A36C7009D060
:10055300E0D0E0D0E002051EA3A3D0E0227587011E
:100563000022C082C0835392FE900F1CE06422706D
:100573000E900F09E070327402900F09F0802A90F8
:100583000F1CE06420701C900F09E0701C900F1684
:100593007429F0A3740FF0A37400F07402900F0990
:1005A300F080067404900F09F0D083D0825392FE3A
:1005B30022C082C0835392FE900F1CE064217026F8
:1005C300900F09E07026900F167429F0A3740FF0B2
:1005D300A37400F0900F197407F0A37400F0740172
:1005E300900F09F080067404900F09F0D083D08235
:1005F3005392FE22C082C08374045392FE900F096B
:10060300F0D083D0825392FE22C082C083740453FD
:1006130092FE900F09F0D083D0825392FE22C082C3
:10062300C08374045392FE900F09F0D083D0825399
:1006330092FE22C082C08374045392FE900F09F08D
:10064300D083D0825392FE22C082C083E95392FEAC
:100653001204CB01096E066E066E066E066E066EFA
:10066300066E066E066E066E066E06D083D0825345
:1006730092FE225392FE22C082C0835392FE901CAC
:100683003EE0F8A3E0F9900F00E8F0A3E9F0D0838F
:10069300D0825392FE2274F812033274FE120301C5
:1006A300120495E9FCEAFD7A007B0080270592900D
:1006B3000F00E0F584A3E0F585E4059293F8790053
:1006C3000592900F00E028F8A3E039F9900F00E8B5
:1006D300F0A3E9F0900F00E0F8A3E0F9901C40E0EC
:1006E300687003A3E0696060900F00E0F584A3E005
:1006F300F5850592A3E4936C70310592900F00E0A9
:10070300FAA3E0FB900F00E0F584A3E0F585E40590
:100713009293F879000592900F00E028F8A3E0394E
:10072300F9900F00E8F0A3E9F0801D0592900F0007
:10073300E0F584A3E0F5850592A3E4936D600302DD
:1007430006B0ED70030206B08510828511835392C3
:10075300FE12049D74021202E77F01020395120642
:100763007A7A0079011206995392FE2274F71203E2
:1007730032E9FEEAFF12067A7A0079021206998AB2
:10078300088B09A808A909E8FAE9FBE864007003E3
:10079300E96400601CEE60108A828B83A3A3A3A389
:1007A300A3E4936E70D28009EFFC74FF2CFFEC700E
:1007B300C77F0202039574F6120332E9FEEAFF8B48
:1007C3000A7A00EEF912076F7A0279041206998AFF
:1007D300088B09A808A909E8FAE9FBE86400700393
:1007E300E9640060188A828B83A3A3E4936F70D8B3
:1007F3008A828B83A3A3A3E493650A70CB7F03024E
:10080300039574F7120332E9FE12067A7A0079032C
:100813001206998A088B09AA08AB09EEFC74FF2C0F
:10082300FEEC70E87F02020395C082C0837A0079F0
:100833000112076F8A828B83A3A3A3A3A3A3A3E4B9
:1008430093A2E65004D2F08002C2F0A2F0E492E058
:10085300900F15F07400900F14F0740390620FF072
:1008630090620FE0A2E750F890620BE0D2E1F0D083
:1008730083D0825392FE22C082C08374025392FEBD
:10088300900F02F07400900F03F07400900F09F0C2
:100893007903120B85751200751300D083D0825330
:1008A30092FE2274F512033274FE120301120495B0
:1008B30090620EE0FE740090620EF0906211E0FF11
:1008C300EFA2E450277480906211F07407900F092F
:1008D300F074006512700474006513600985128258
:1008E3008513831203307400900F09F0EFA2E250D6
:1008F3000C7400906211F07400900F09F0900F09CE
:10090300E0640260030209A4906216E0F50A05920E
:10091300900F161204BAA90A7A207B62120BD374C1
:10092300031202E7850A08750900900F19C3E095C1
:1009330008F0A3E09509F0750B00900F16E0F9A3FA
:10094300E0FAA3E0FBE9250AF9EA350BFA900F1662
:10095300E9F0A3EAF0A3EBF0900F19E06400700450
:10096300A3E064006004744080027448906211F054
:10097300900F19E064007004A3E06400701B74001E
:1009830065127004740065136009851282851383F0
:100993001203307400900F09F0EE90620EF0020B18
:1009A30072900F09E0640670098512828513831221
:1009B3000330900F09E06003020ABCEFA2E040039A
:1009C300020ABC75081B75090F750A007808120422
:1009D300A579087A207B62120BD374031202E775A0
:1009E3001200751300900F1BE0F874E05812050114
:1009F300000600090A208E0A40780A80450AA09959
:100A03000AC0830AA40A900F1CE012050100050125
:100A13002E0A03290A05230A09330A0B380A3D0A59
:100A2300121027020AAA121018807C12100980776C
:100A33001215DB8072121756806D7404900F09F043
:100A43008065900F1CE01205010004005C0A06613A
:100A53000A08660A0A6B0A700A120D888049121086
:100A63009E804412157C803F1216E9803A740490EC
:100A73000F09F080327512F77513051205F78027F9
:100A830075120C75130612060C801C75126575130E
:100A93000512056580117512B47513051205B4802E
:100AA300067404900F09F0900F09E0640470047455
:100AB3006080027440906211F0900F09E06401605D
:100AC30003020B5C7F02900F19C3E09420A3E09410
:100AD30000500D900F19E0F50AD3EF92E3FF800366
:100AE300750A200592900F161204BAA90A7A207B80
:100AF30062120C2A74031202E7850A087509009032
:100B03000F16E0F9A3E0FAA3E0FBE92508F9EA35BB
:100B130009FA900F16E9F0A3EAF0A3EBF0850A08AF
:100B2300750900900F19C3E09508F0A3E09509F04B
:100B3300EF906211F0E50AC39420502E7400651201
:100B43007004740065136009851282851383120390
:100B5300307400900F09F08011900F09E064057064
:100B630009851282851383120330EE90620EF0859D
:100B7300108285118312049D74021202E77F04021E
:100B8300039574F71203327A008018E9C0E08A08EB
:100B9300750900E508240AF582E509340FF583D0C9
:100BA300E0F00AEAC3940540E27A008018E9C0E065
:100BB3008A08750900E508240FF582E509340FF565
:100BC30083D0E0F00AEAC3940540E27F0202039572
:100BD30074F812033274FE1203011204958A848B93
:100BE30085E9FF740A12031CE0FCA3E0FDA3E0FE09
:100BF300ECF9EDFAEEFBEF6018439201E01201EA23
:100C0300E92401F9EA3400FA74FF2FFCECFFEC70DD
:100C1300E88510828511835392FE12049D7402129B
:100C230002E77F0102039574F812033274FE120384
:100C3300011204958A848B85E9FF740A12031CE070
:100C4300FCA3E0FDA3E0FEECF9EDFAEEFBEF601888
:100C53001201C9439201F0E92401F9EA3400FA745C
:100C6300FF2FFCECFFEC70E8851082851183539213
:100C7300FE12049D74021202E77F0102039574F7CA
:100C83001203327514007515007516008A178B1838
:100C9300EA90620BF08A088B09740478081202AF99
:100CA300E508906207F08A088B0974097808120234
:100CB300AFE508543E906209F0758B00C2E843AC7F
:100CC30020439A027F02020395C0E074F01203D31B
:100CD300E59DA2E650FA906206E0FAEAA2E25036F7
:100CE300A817E890620BF085170885180974047833
:100CF300081202AFE508906207F085170885180906
:100D0300740978081202AFE508543E906209F09026
:100D13006201E0D2E0F08A087509007814E508461C
:100D2300F608E50946F6906202E0F50875090074D5
:100D33000478081202BE7814E50846F608E5094669
:100D4300F6906204E0F50875090074097808120248
:100D5300BE7814E50846F608E50946F6EAA2E0502F
:100D63000375160174065A6003751600E58BA2E538
:100D73005006758BDF751600120676758B00C2E878
:100D83007F0202043A74F7120332900F1DE06400ED
:100D93007004A3E064007024900F1FE05400F8A3D4
:100DA300E054FFF97400687003740069700E900FCB
:100DB30021E064027004A3E0640060097404900FEE
:100DC30009F0020EDA900F1BE01204CB8002AE0E84
:100DD300D90D1A0E370E900F1FE054FF60097404EB
:100DE300900F09F0020EB4900F15E06006780179B8
:100DF30000800478007900900F23E8F0A3E9F090D5
:100E03000F14E07003020EB4900F23E04402F0A32A
:100E1300E04400F0020EB4900F02E0640460097431
:100E230004900F09F0020EB4900F237400F0A37422
:100E330000F0807D900F1FE0547FF508900F02E0D3
:100E430064047007E508C3940640087404900F090E
:100E5300F0805E900F1FE054806028750900E5085C
:100E63002409F582E509340FF583E06403700678FD
:100E7300017900800478007900900F23E8F0A3E95A
:100E8300F0802E750900E508240EF582E509340F7C
:100E9300F583E064037006780179008004780079B3
:100EA30000900F23E8F0A3E9F080067404900F0983
:100EB300F0900F09E06404601E900F167423F0A3F2
:100EC300740FF0A37400F0900F197402F0A3740070
:100ED300F07401900F09F07F0202039574F7120377
:100EE30032E9FE900F21E064007004A3E064007017
:100EF30016900F02E064046017900F1FE064007007
:100F030004A3E0640060097404900F09F002100266
:100F1300900F1BE0F8741F581204CB0002FC0F283B
:100F23000F4D0F520F900F1DE054FF6401600579C0
:100F330000021004EE900F14F0EE600479058002B5
:100F430079067A0012064B0210027900021004900F
:100F53000F1FE0547FFA900F1DE054FF60057900E6
:100F6300021004EAC3940640097404900F09F002C6
:100F73001002EA90620EF0900F1FE05480603AEE88
:100F83006004741080027440906211F0EE60047487
:100F93000380027400C0E08A08750900E50824098B
:100FA300F582E509340FF583D0E0F0EE60047908AB
:100FB3008002790712064B8038EE600474208002A9
:100FC3007480906214F0EE6004740380027400C0B5
:100FD300E08A08750900E508240EF582E509340F57
:100FE300F583D0E0F0EE6004790A800279091206F5
:100FF3004B740090620EF080067404900F09F07930
:10100300017F020203957900120EDFE970031206D5
:10101300215392FE227901120EDFE9700312063684
:101023005392FE22C082C0835392FE900F1FE0644E
:10103300007004A3E064007024900F21E06400704A
:1010430004A3E064007016900F1DE05480F8A3E041
:1010530054FFF974006870037400696008740490A5
:101063000F09F0802E900F1DE0906200F0900F1D8D
:10107300E054FF6010900F02E06402701674039056
:101083000F02F0800E900F02E0640370067402906A
:101093000F02F0D083D0825392FE2274F5120332F2
:1010A30074FE120301120495900F1DA3E0F9E912D7
:1010B30004CB01029F11BF10F11068111207618A5E
:1010C300088B09750A80900F16E508F0A3E509F06F
:1010D300A3E50AF0900F16E0F9A3E0FAA3E0FB12F0
:1010E30001C97900900F19F0A3E9F002135F900F83
:1010F3001DE0FA790012076F8A088B09750A809040
:101103000F16E508F0A3E509F0A3E50AF0900F1622
:10111300E0F9A3E0FAA3E0FBE92402F9EA3400FAD8
:101123001201C9FC7D00900F16E0F9A3E0FAA3E0D9
:10113300FBE92403F9EA3400FA1201C9F87900E85B
:1011430075F000A4C8AAF075F001A42AFA75F0009E
:10115300E9A42AF9E82CF8E93DF9900F19E8F0A37E
:10116300E9F002135F900F1DE0F91208058A088B5E
:1011730009750A80900F16E508F0A3E509F0A3E5C9
:101183000AF0900F16E0F9A3E0FAA3E0FB1201C9FD
:101193007900900F19F0A3E9F002135F900F167412
:1011A30000F0A37400F0A37400F07A0002132AEA9B
:1011B300F87900E875F008A4C8ABF075F000A42B2B
:1011C300FB75F008E9A42BF90592901C42E028F581
:1011D30084A3E039F585E4059293C0E00592900F6E
:1011E3001DA3E0F9E9F8D0E0686003021329EAF8E7
:1011F3007900E875F008A4C8ABF075F000A42BFBE8
:1012030075F008E9A42BF9901C42E028F584A3E0CB
:1012130039F5850592A3E493FB0592900F1DE054E5
:10122300FF6B6003021329EAF87900E875F008A45C
:10123300C8ABF075F000A42BFB75F008E9A42BF9FB
:10124300901C42E028F584A3E039F5850592A3A319
:10125300E493C0E00592900F1FA3E0F9E9F8D0E012
:10126300686003021329EAF87900E875F008A4C856
:10127300ABF075F000A42BFB75F008E9A42BF990F3
:101283001C42E028F584A3E039F5850592A3A3A3C6
:10129300E493FB0592900F1FE054FF6B600302136E
:1012A30029EAF87900E875F008A4C8ABF075F000F6
:1012B300A42BFB75F008E9A42BF90592901C42E0DE
:1012C30028F582A3E039F5830592A3A3A3A3E493AE
:1012D300F508740193F509750A80900F16E508F077
:1012E300A3E509F0A3E50AF0EAF87900E875F00848
:1012F300A4C8ABF075F000A42BFB75F008E9A42B90
:10130300F9901C42E028F584A3E039F5850592A302
:10131300A3A3A3A3A3E493F8740193F90592900FF5
:1013230019E8F0A3E9F00A8A087509000592901CF0
:10133300440592901C42E0F8A3E0F90592E0C398BB
:10134300F50AA3E099F50B7403780A1202AFC3E51B
:1013530008950AE509950B50030211B25392FE90CA
:101363000F16E0FCA3E0FDA3E0FE79007A007B000A
:101373001201BE70067404900F09F0900F09E06427
:101383000460340592900F210592900F19E0F8A3A1
:10139300E0F9C30592E098A3E09950120592900FEB
:1013A30021E0F8A3E0F9900F19E8F0A3E9F0740144
:1013B3005392FE900F09F085108285118312049DCC
:1013C30074021202E77F0402039574F3120332746A
:1013D300FE1203011204958A0C8B0D850C82850D78
:1013E30083A3A3A3A3E4936033901C46E0F50AA36D
:1013F300E0F50B8010850A82850B83A3A3A3A38545
:10140300820A85830B850A82850B83E493F8740132
:1014130093F9E50C687003E50D6970D97E00806768
:101423007490906214F07410906214F00592A3A368
:10143300A3E493540364017005D3ED92E6FD7508AC
:1014430001750900EC78081202BE850A82850B83B8
:10145300A3A3A3E49355086005D3ED92E0FDED90BB
:101463006215F0EA906213F07400C0E08C0875090D
:1014730000E508240EF582E509340FF583D0E0F08A
:10148300740090620EF00EEEC0E0850C82850D8331
:10149300A3A3A3A3E493FAD0E0C39A40030215697C
:1014A3007A0079051206998A088B09A808A9098880
:1014B300828983E864007003E9640060C9858284DB
:1014C3008583850592A3A3E493540FFCEC90620EED
:1014D300F07D00858284858385A3A3A3A3E493245D
:1014E30007F508A3E4933400F5097403780812029E
:1014F300AFAA08858284858385A3A3E493A2E740EA
:10150300030214237448906211F07408906211F07E
:101513000592A3A3A3E493540364017005D3ED924E
:10152300E6FD750801750900EC78081202BE850A0C
:1015330082850B83A3A3E49355086005D3ED92E062
:10154300FDED906212F0EA906210F07400C0E08C3E
:1015530008750900E5082409F582E509340FF583C8
:10156300D0E0F002148385108285118312049D74E8
:10157300021202E77F06020395C082C0835392FEE4
:10158300900F1DE064007004A3E06400701C900FD2
:101593001FE064007004A3E06400700E900F21E06C
:1015A30064017004A3E0640060087404900F09F000
:1015B300801E900F167403F0A3740FF0A37400F051
:1015C300900F197401F0A37400F07401900F09F0E7
:1015D300D083D0825392FE2274F6120332900F020C
:1015E300E064026032900F1FE064007004A3E064C3
:1015F300007024900F21E064007004A3E064007085
:1016030016900F1DE05400F8A3E054FFF97400682E
:10161300700374006960097404900F09F00216E402
:101623007A00790112064B900F1DE054FF700302FC
:1016330016CA7A00900F1DE0F912076F8A088B090A
:10164300AE08AF09EE64007003EF640060717404C8
:10165300900F02F0900F1DE0900F03F0750A008EBB
:10166300828F83A3A3A3A3E493FAE50AC39A506AE0
:101673007400C0E0850A08750900E5082404F582B2
:10168300E509340FF583D0E0F07A00790412069966
:101693008A088B09AA08AB098A828B83A3A3A3E4D4
:1016A30093FC850A08750900E5082404F582E50919
:1016B300340FF583E06C70D11213CD050A80A0744A
:1016C30004900F09F08013900F1DE0900F03F07446
:1016D30003900F02F07903120B857A007902120648
:1016E3004B7F0302039574F6120332900F02E064FA
:1016F300047024900F1BE06481701C900F1DE06444
:10170300007004A3E06400700E900F21E064017088
:1017130004A3E0640060087404900F09F0802F9024
:101723000F1FE02404F508A3E0340FF509750A0040
:10173300900F16E508F0A3E509F0A3E50AF0900F72
:10174300197401F0A37400F07401900F09F07F0382
:1017530002039574F712033274FE12030112049507
:10176300900F02E064047016900F1BE06401700E8A
:10177300900F21E064007004A3E064006008740427
:10178300900F09F08068900F1DE0FB900F1FE0FAA7
:10179300900F03E0F91207B98A088B09A808A90971
:1017A30088828983E864007003E96400603A0592E3
:1017B300900F1FE0FA790312064B0592900F1DE07C
:1017C300C0E0900F1FE02404F8A3E0340FF98884ED
:1017D3008985D0E0F0AA82AB831213CD900F1FE06E
:1017E300FA790412064B80067404900F09F08510F1
:1017F3008285118312049D74021202E77F020203A1
:101803009574F812033274FE120301120495900FBB
:1018130025E064007004A3E0640060110592900F5A
:1018230025E0F582A3E0F5830592120330758B0062
:10183300C2E843AC20439A0290620FE0C2E1F09009
:10184300620FE0A2E740F875BE05120560E5167069
:10185300F6E59DA2E650FA740390620FF090620FD2
:10186300E0A2E750F8900F27E064007004A3E0645F
:101873000060110592900F27E0F582A3E0F5830540
:101883009212033085108285118312049D74021213
:1018930002E77F0102039574F51203328A088B096C
:1018A3008C0A8D0B900F2978081202297400900F6F
:1018B3002DF07400900F2EF07408900F2FF0120883
:1018C3002C7AFF7BFF120C8153F4FED29043FE016E
:1018D300D2AF7F040203951218E7121A01121935C9
:1018E3005392FE22A814E85404600E781474FB5635
:1018F300F60874FF56F612087AA814E85410600E1E
:10190300781474EF56F60874FF56F61208A6A81456
:10191300E8A2E05019781474FE56F60874FF56F6E0
:10192300121804781474FD56F60874FF56F6539291
:10193300FE2274F612033274FE1202D153ACDF900E
:10194300620EE0900F70F0740490620EF0906211DA
:10195300E0A2E050030219E97E00802E8F0875098A
:101963000078081204A9740212031CE0FCA3E0FD32
:101973008E08750900E5082430FAE509340FFB12D7
:1019830021CC74021202E7EF2EFE901C1DE06400CE
:101993007004A3E064006020EEC39440501A7440C6
:1019A300C39EF9851082851183AA82AB831220809E
:1019B300E9FFEFC3940150A4EEC3940140287508D6
:1019C3003075090F750A0078081204A5EEF97A2814
:1019D3007B62120C2A74031202E7740490620EF005
:1019E3007401906211F0900F70E090620EF043ACBE
:1019F30020439A0274021202E77F0302039574F6EE
:101A030012033274FE120301120495C2AFC2AF90E7
:101A1300620EE0900F70F0740490620EF090621406
:101A2300E0A2E04003021AC9906216E0FE9062173A
:101A3300E0EE7003021AC975083075090F750A00C4
:101A430078081204A5EEF97A287B62120BD374038B
:101A53001202E77C00805E901C2BC3E09408A3E095
:101A6300940050508C08750900E5082430F582E590
:101A730009340FF583E0C0E0901C29E0241FF584AE
:101A8300A3E0341CF585D0E00592F00592901C2B61
:101A9300E02401F0A3E03400F0901C29E02401F8D5
:101AA300A3E03400F97A087B00120256901C29EA5D
:101AB300F0A3EBF00CECC39E409D740490620EF017
:101AC3007400906214F0900F70E090620EF0D2AF49
:101AD30085108285118312049D74021202E77F032D
:101AE300020395121BEC121F61121D4412200853AE
:101AF30092FE22C082C0838A828B83121FBBE0F9CD
:101B0300121D8ED083D0825392FE22121DB75392A0
:101B1300FE22121DB7121FDF1220395392FE22C07C
:101B230082C0838A828B835392FEE01205010002F6
:101B3300AA3B1BBB401B451B121B0E8015121B151A
:101B430080108A828B83E0C3940BC39410500312DA
:101B53001AF6D083D0825392FE22C082C08380368D
:101B6300901C27E0241FFAA3E0341CFB121B2290D5
:101B73001C2BE024FFF0A3E034FFF0901C27E024AB
:101B830001F8A3E03400F97A087B00120256901C96
:101B930027EAF0A3EBF05392FE901C2BE064007055
:101BA30004A3E0640070B9D083D0825392FE22C0B4
:101BB30082C083121B5D1218DA901C1DC3E09418B7
:101BC300A3E0940040047B0180027B00901C34E07E
:101BD300FA901C33E0F9121C2DD083D0825392FE6D
:101BE30022121AE6121BB280FBC082C08353F4FD9B
:101BF300C29143FE0253F3FEC28043FD01740153BD
:101C030092FE901C2DF07400901C2EF07400901C1A
:101C13002FF07400901C30F0901C317400F0A3740A
:101C230000F0D083D0825392FE22C082C0835392AD
:101C3300FE901C2DE06043E960147400901C2DF0AD
:101C4300901C317400F0A37400F0C280802C901CAF
:101C530031E02401FCA3E03400FD901C31ECF0A33F
:101C6300EDF0C3EC9430ED9475400F901C3174008B
:101C7300F0A37400F0638001E580901C2DE0600305
:101C8300021D3CE970177401901C2DF0D280C291A3
:101C9300901C317400F0A37400F0021D3C901C2FC3
:101CA300E07006901C2EE06077901C31E02401F078
:101CB300A3E03400F0901C2FE06021901C31C3E0BE
:101CC3009410A3E094274014901C317400F0A37483
:101CD30000F07400901C2FF0C291805D901C2EE0E8
:101CE3006057901C31C3E094B8A3E0940B404A9032
:101CF3001C317400F0A37400F0901C30E02401F058
:101D0300901C30E0C3940340107400901C30F0C268
:101D1300917400901C2EF08020639002E59080194E
:101D2300EB60087401901C2FF0D291EB700BEA600A
:101D3300087401901C2EF0D291D083D0825392FE6E
:101D430022C082C0835392FE906189E04430F074D4
:101D530000906180F07400906182F074099061FAE0
:101D6300F074159061B2F074009061AEF09061A3CD
:101D7300E04442F0439A017400901C33F0740090E5
:101D83001C34F0D083D0825392FE22C082C083538E
:101D930092FE901C33E0701475E1E375F005E9A43D
:101DA30024D490618FF07401901C33F0D083D082DF
:101DB3005392FE22C082C0835392FE901C33E06094
:101DC3000C75E1ED75E1EF7400901C33F0D083D016
:101DD300825392FE22C0E074EE1203D374FE120308
:101DE30001120495C2AFC2AF7C00901C1DC3E094E6
:101DF30018A3E094004003021ED5901C1BE0F8A337
:101E0300E0F9E875F087A4C8AAF075F000A42AFAEF
:101E130075F087E9A42AF9E82471F582E9340FF50E
:101E230083E5E9A2E150330592901C35780812024C
:101E33001A858284858385A37808120229E5E285C1
:101E43008284858385A3A3A3A3A3F0E5E38582848A
:101E5300858385A3A3A3A3A3A3F0E5E9A2E6400397
:101E6300021EE7858284858385439201A3A3A3A3EE
:101E7300A3A3A3A884A98590619BE00592F07A00AF
:101E83008019E5D9C0E08A08750900E82508F584BA
:101E9300E93509F585D0E00592F00AEAC0E05392EE
:101EA300FEE0FBD0E0C39B40D9901C1DE02401F071
:101EB300A3E03400F0901C1BE02401F8A3E03400FD
:101EC300F97A187B00120256901C1BEAF0A3EBF080
:101ED3008012E5E9A2E65004D2F08002C2F0A2F03B
:101EE300E492E0FC75E900759B00759100E5BFA2E3
:101EF300E24003EC600375E1EDD2AF8510828511FA
:101F0300835392FE12049D74021202E77F040204BB
:101F13003AC0E0C0D0C092C082C083C28975BF00FE
:101F230075E1ED75E1E374015392FE901C34F0D03A
:101F330083D082D092D0D0D0E03253C67F5392FE6A
:101F43002253BEFBE59DA2E550FAE59DA2E240F4D3
:101F530075C600E59E70FC43BE045392FE2274F5E1
:101F630012033275E40075E54053AFFEC2B9121F88
:101F73003D121F44D2B97400901C39F0901C4A786A
:101F83000812021A901C3578081202297F040203F2
:101F930095C0E074EE1203D3E5AFA2E5501553AF3D
:101FA30020E5AF901C4E780812021A901C35780871
:101FB3001202077F0402043AC082C0835392FE9048
:101FC3001C39E0700F7401901C39F075DA0075DB71
:101FD3000043E401D083D0825392FE2274F51203AE
:101FE30032901C39E060197400901C39F0901C4A3F
:101FF300780812021A901C35780812022953E4FE5D
:102003007F04020395C082C083780079005392FE57
:10201300901C2BE8F0A3E9F0901C29E8F0A3E9F069
:10202300901C27E8F0A3E9F01220391221AFD083E6
:10203300D0825392FE22C082C083C2AFC2AF780067
:1020430079005392FE901C1DE8F0A3E9F0901C1B4D
:10205300E8F0A3E9F0901C19E8F0A3E9F0901C3A2A
:102063007452F0A3741CF07402901C3CF074019041
:102073001C3DF0D2AFD083D0825392FE2274F8126B
:10208300033274FE120301120495E9FD7C00901CD7
:102093001DE064007004A3E06400700302219A90C1
:1020A3001C3CE0C39D5007901C3CE0FE8002EDFE0B
:1020B300EEFC901C3AE0F8A3E0F98A828B83E8F007
:1020C300A3E9F0901C3CE0C39CF0ECF87900901C71
:1020D3003AE028F8A3E039F9901C3AE8F0A3E9F0D4
:1020E300901C3CE0600302219AECC394015003026C
:1020F300219A901C3DE06058901C1DE06400700420
:10210300A3E064007006780079008025901C19E034
:10211300F8A3E0F9E875F087A4C8AAF075F000A465
:102123002AFA75F087E9A42AF9E82471F8E9340F4B
:10213300F9901C3AE8F0A3E9F0901C3AE0F584A387
:10214300E0F5850592E024070592901C3CF080376A
:10215300901C1DE024FFF0A3E034FFF0901C19E075
:102163002401F8A3E03400F97A187B001202569098
:102173001C19EAF0A3EBF0901C3A7452F0A3741C00
:10218300F07402901C3CF0901C3DE07004740180DC
:10219300027400901C3DF0ECF985108285118312C6
:1021A300049D74021202E77F0102039574F5120382
:1021B30032901C54780812021AAA08AB09AC0AAD73
:1021C3000B12189A7F0402039574F812033274FEFB
:1021D3001203011204958C828D83740A120326055F
:1021E30092E0F8A3E0F98A848B85800B5392FEE09A
:1021F3000592F0A30592A3E8FCE9FD74FF2C187483
:10220300FF3DF9EC7001ED70E38510828511835376
:0F22130092FE12049D74021202E77F01020395EE
:04000005000000E116
:00000001FF
